{
  "_format": "hh-sol-artifact-1",
  "contractName": "NFTMarketplace",
  "sourceName": "contracts/NFTMarketplace.sol",
  "abi": [
    {
      "inputs": [],
      "stateMutability": "nonpayable",
      "type": "constructor"
    },
    {
      "anonymous": false,
      "inputs": [
        {
          "indexed": true,
          "internalType": "address",
          "name": "owner",
          "type": "address"
        },
        {
          "indexed": true,
          "internalType": "address",
          "name": "approved",
          "type": "address"
        },
        {
          "indexed": true,
          "internalType": "uint256",
          "name": "tokenId",
          "type": "uint256"
        }
      ],
      "name": "Approval",
      "type": "event"
    },
    {
      "anonymous": false,
      "inputs": [
        {
          "indexed": true,
          "internalType": "address",
          "name": "owner",
          "type": "address"
        },
        {
          "indexed": true,
          "internalType": "address",
          "name": "operator",
          "type": "address"
        },
        {
          "indexed": false,
          "internalType": "bool",
          "name": "approved",
          "type": "bool"
        }
      ],
      "name": "ApprovalForAll",
      "type": "event"
    },
    {
      "anonymous": false,
      "inputs": [
        {
          "indexed": true,
          "internalType": "address",
          "name": "from",
          "type": "address"
        },
        {
          "indexed": true,
          "internalType": "address",
          "name": "to",
          "type": "address"
        },
        {
          "indexed": true,
          "internalType": "uint256",
          "name": "tokenId",
          "type": "uint256"
        }
      ],
      "name": "Transfer",
      "type": "event"
    },
    {
      "anonymous": false,
      "inputs": [
        {
          "indexed": true,
          "internalType": "uint256",
          "name": "tokenId",
          "type": "uint256"
        },
        {
          "indexed": false,
          "internalType": "address",
          "name": "seller",
          "type": "address"
        },
        {
          "indexed": false,
          "internalType": "address",
          "name": "owner",
          "type": "address"
        },
        {
          "indexed": false,
          "internalType": "uint256",
          "name": "price",
          "type": "uint256"
        },
        {
          "indexed": false,
          "internalType": "bool",
          "name": "sold",
          "type": "bool"
        }
      ],
      "name": "idMarketItemCreated",
      "type": "event"
    },
    {
      "inputs": [
        {
          "internalType": "address",
          "name": "to",
          "type": "address"
        },
        {
          "internalType": "uint256",
          "name": "tokenId",
          "type": "uint256"
        }
      ],
      "name": "approve",
      "outputs": [],
      "stateMutability": "nonpayable",
      "type": "function"
    },
    {
      "inputs": [
        {
          "internalType": "address",
          "name": "owner",
          "type": "address"
        }
      ],
      "name": "balanceOf",
      "outputs": [
        {
          "internalType": "uint256",
          "name": "",
          "type": "uint256"
        }
      ],
      "stateMutability": "view",
      "type": "function"
    },
    {
      "inputs": [
        {
          "internalType": "uint256",
          "name": "tokenId",
          "type": "uint256"
        }
      ],
      "name": "createMarketSale",
      "outputs": [],
      "stateMutability": "payable",
      "type": "function"
    },
    {
      "inputs": [
        {
          "internalType": "string",
          "name": "tokenURI",
          "type": "string"
        },
        {
          "internalType": "uint256",
          "name": "price",
          "type": "uint256"
        }
      ],
      "name": "createToken",
      "outputs": [
        {
          "internalType": "uint256",
          "name": "",
          "type": "uint256"
        }
      ],
      "stateMutability": "payable",
      "type": "function"
    },
    {
      "inputs": [],
      "name": "fetchItemsListed",
      "outputs": [
        {
          "components": [
            {
              "internalType": "uint256",
              "name": "tokenId",
              "type": "uint256"
            },
            {
              "internalType": "address payable",
              "name": "seller",
              "type": "address"
            },
            {
              "internalType": "address payable",
              "name": "owner",
              "type": "address"
            },
            {
              "internalType": "uint256",
              "name": "price",
              "type": "uint256"
            },
            {
              "internalType": "bool",
              "name": "sold",
              "type": "bool"
            }
          ],
          "internalType": "struct NFTMarketplace.MarketItem[]",
          "name": "",
          "type": "tuple[]"
        }
      ],
      "stateMutability": "view",
      "type": "function"
    },
    {
      "inputs": [],
      "name": "fetchMarketItem",
      "outputs": [
        {
          "components": [
            {
              "internalType": "uint256",
              "name": "tokenId",
              "type": "uint256"
            },
            {
              "internalType": "address payable",
              "name": "seller",
              "type": "address"
            },
            {
              "internalType": "address payable",
              "name": "owner",
              "type": "address"
            },
            {
              "internalType": "uint256",
              "name": "price",
              "type": "uint256"
            },
            {
              "internalType": "bool",
              "name": "sold",
              "type": "bool"
            }
          ],
          "internalType": "struct NFTMarketplace.MarketItem[]",
          "name": "",
          "type": "tuple[]"
        }
      ],
      "stateMutability": "view",
      "type": "function"
    },
    {
      "inputs": [],
      "name": "fetchMyNFT",
      "outputs": [
        {
          "components": [
            {
              "internalType": "uint256",
              "name": "tokenId",
              "type": "uint256"
            },
            {
              "internalType": "address payable",
              "name": "seller",
              "type": "address"
            },
            {
              "internalType": "address payable",
              "name": "owner",
              "type": "address"
            },
            {
              "internalType": "uint256",
              "name": "price",
              "type": "uint256"
            },
            {
              "internalType": "bool",
              "name": "sold",
              "type": "bool"
            }
          ],
          "internalType": "struct NFTMarketplace.MarketItem[]",
          "name": "",
          "type": "tuple[]"
        }
      ],
      "stateMutability": "view",
      "type": "function"
    },
    {
      "inputs": [
        {
          "internalType": "uint256",
          "name": "tokenId",
          "type": "uint256"
        }
      ],
      "name": "getApproved",
      "outputs": [
        {
          "internalType": "address",
          "name": "",
          "type": "address"
        }
      ],
      "stateMutability": "view",
      "type": "function"
    },
    {
      "inputs": [],
      "name": "getListingPrice",
      "outputs": [
        {
          "internalType": "uint256",
          "name": "",
          "type": "uint256"
        }
      ],
      "stateMutability": "view",
      "type": "function"
    },
    {
      "inputs": [
        {
          "internalType": "address",
          "name": "owner",
          "type": "address"
        },
        {
          "internalType": "address",
          "name": "operator",
          "type": "address"
        }
      ],
      "name": "isApprovedForAll",
      "outputs": [
        {
          "internalType": "bool",
          "name": "",
          "type": "bool"
        }
      ],
      "stateMutability": "view",
      "type": "function"
    },
    {
      "inputs": [],
      "name": "name",
      "outputs": [
        {
          "internalType": "string",
          "name": "",
          "type": "string"
        }
      ],
      "stateMutability": "view",
      "type": "function"
    },
    {
      "inputs": [
        {
          "internalType": "uint256",
          "name": "tokenId",
          "type": "uint256"
        }
      ],
      "name": "ownerOf",
      "outputs": [
        {
          "internalType": "address",
          "name": "",
          "type": "address"
        }
      ],
      "stateMutability": "view",
      "type": "function"
    },
    {
      "inputs": [
        {
          "internalType": "uint256",
          "name": "tokenId",
          "type": "uint256"
        },
        {
          "internalType": "uint256",
          "name": "price",
          "type": "uint256"
        }
      ],
      "name": "reSellToken",
      "outputs": [],
      "stateMutability": "payable",
      "type": "function"
    },
    {
      "inputs": [
        {
          "internalType": "address",
          "name": "from",
          "type": "address"
        },
        {
          "internalType": "address",
          "name": "to",
          "type": "address"
        },
        {
          "internalType": "uint256",
          "name": "tokenId",
          "type": "uint256"
        }
      ],
      "name": "safeTransferFrom",
      "outputs": [],
      "stateMutability": "nonpayable",
      "type": "function"
    },
    {
      "inputs": [
        {
          "internalType": "address",
          "name": "from",
          "type": "address"
        },
        {
          "internalType": "address",
          "name": "to",
          "type": "address"
        },
        {
          "internalType": "uint256",
          "name": "tokenId",
          "type": "uint256"
        },
        {
          "internalType": "bytes",
          "name": "data",
          "type": "bytes"
        }
      ],
      "name": "safeTransferFrom",
      "outputs": [],
      "stateMutability": "nonpayable",
      "type": "function"
    },
    {
      "inputs": [
        {
          "internalType": "address",
          "name": "operator",
          "type": "address"
        },
        {
          "internalType": "bool",
          "name": "approved",
          "type": "bool"
        }
      ],
      "name": "setApprovalForAll",
      "outputs": [],
      "stateMutability": "nonpayable",
      "type": "function"
    },
    {
      "inputs": [
        {
          "internalType": "bytes4",
          "name": "interfaceId",
          "type": "bytes4"
        }
      ],
      "name": "supportsInterface",
      "outputs": [
        {
          "internalType": "bool",
          "name": "",
          "type": "bool"
        }
      ],
      "stateMutability": "view",
      "type": "function"
    },
    {
      "inputs": [],
      "name": "symbol",
      "outputs": [
        {
          "internalType": "string",
          "name": "",
          "type": "string"
        }
      ],
      "stateMutability": "view",
      "type": "function"
    },
    {
      "inputs": [
        {
          "internalType": "uint256",
          "name": "tokenId",
          "type": "uint256"
        }
      ],
      "name": "tokenURI",
      "outputs": [
        {
          "internalType": "string",
          "name": "",
          "type": "string"
        }
      ],
      "stateMutability": "view",
      "type": "function"
    },
    {
      "inputs": [
        {
          "internalType": "address",
          "name": "from",
          "type": "address"
        },
        {
          "internalType": "address",
          "name": "to",
          "type": "address"
        },
        {
          "internalType": "uint256",
          "name": "tokenId",
          "type": "uint256"
        }
      ],
      "name": "transferFrom",
      "outputs": [],
      "stateMutability": "nonpayable",
      "type": "function"
    },
    {
      "inputs": [
        {
          "internalType": "uint256",
          "name": "_listingPrice",
          "type": "uint256"
        }
      ],
      "name": "updateListingPrice",
      "outputs": [],
      "stateMutability": "payable",
      "type": "function"
    }
  ],
  "bytecode": "0x60806040526605543df729c0006009553480156200001c57600080fd5b506040518060400160405280601381526020017f4e4654204d657461766172736520546f6b656e000000000000000000000000008152506040518060400160405280600581526020017f4d594e46540000000000000000000000000000000000000000000000000000008152508160009080519060200190620000a1929190620000e9565b508060019080519060200190620000ba929190620000e9565b5050503373ffffffffffffffffffffffffffffffffffffffff16600a60009054906101000a90505050620001fe565b828054620000f790620001c8565b90600052602060002090601f0160209004810192826200011b576000855562000167565b82601f106200013657805160ff191683800117855562000167565b8280016001018555821562000167579182015b828111156200016657825182559160200191906001019062000149565b5b5090506200017691906200017a565b5090565b5b80821115620001955760008160009055506001016200017b565b5090565b7f4e487b7100000000000000000000000000000000000000000000000000000000600052602260045260246000fd5b60006002820490506001821680620001e157607f821691505b60208210811415620001f857620001f762000199565b5b50919050565b61401c806200020e6000396000f3fe60806040526004361061012a5760003560e01c806372b3b620116100ab578063ae677aa31161006f578063ae677aa3146103ea578063b88d4fde14610406578063be9af5361461042f578063c18763f71461044b578063c87b56dd14610476578063e985e9c5146104b35761012a565b806372b3b6201461031f57806385535b251461034f5780638fafd0211461036b57806395d89b4114610396578063a22cb465146103c15761012a565b806323b872dd116100f257806323b872dd1461022857806342842e0e1461025157806345f8fa801461027a5780636352211e146102a557806370a08231146102e25761012a565b806301ffc9a71461012f57806306fdde031461016c578063081812fc14610197578063095ea7b3146101d457806312e85585146101fd575b600080fd5b34801561013b57600080fd5b5061015660048036038101906101519190612a3d565b6104f0565b6040516101639190612a85565b60405180910390f35b34801561017857600080fd5b506101816105d2565b60405161018e9190612b39565b60405180910390f35b3480156101a357600080fd5b506101be60048036038101906101b99190612b91565b610664565b6040516101cb9190612bff565b60405180910390f35b3480156101e057600080fd5b506101fb60048036038101906101f69190612c46565b6106aa565b005b34801561020957600080fd5b506102126107c2565b60405161021f9190612c95565b60405180910390f35b34801561023457600080fd5b5061024f600480360381019061024a9190612cb0565b6107cc565b005b34801561025d57600080fd5b5061027860048036038101906102739190612cb0565b61082c565b005b34801561028657600080fd5b5061028f61084c565b60405161029c9190612e59565b60405180910390f35b3480156102b157600080fd5b506102cc60048036038101906102c79190612b91565b610b3a565b6040516102d99190612bff565b60405180910390f35b3480156102ee57600080fd5b5061030960048036038101906103049190612e7b565b610bec565b6040516103169190612c95565b60405180910390f35b61033960048036038101906103349190612fdd565b610ca4565b6040516103469190612c95565b60405180910390f35b61036960048036038101906103649190613039565b610ce6565b005b34801561037757600080fd5b50610380610edb565b60405161038d9190612e59565b60405180910390f35b3480156103a257600080fd5b506103ab611144565b6040516103b89190612b39565b60405180910390f35b3480156103cd57600080fd5b506103e860048036038101906103e391906130a5565b6111d6565b005b61040460048036038101906103ff9190612b91565b6111ec565b005b34801561041257600080fd5b5061042d60048036038101906104289190613186565b611286565b005b61044960048036038101906104449190612b91565b6112e8565b005b34801561045757600080fd5b50610460611520565b60405161046d9190612e59565b60405180910390f35b34801561048257600080fd5b5061049d60048036038101906104989190612b91565b61180e565b6040516104aa9190612b39565b60405180910390f35b3480156104bf57600080fd5b506104da60048036038101906104d59190613209565b611921565b6040516104e79190612a85565b60405180910390f35b60007f80ac58cd000000000000000000000000000000000000000000000000000000007bffffffffffffffffffffffffffffffffffffffffffffffffffffffff1916827bffffffffffffffffffffffffffffffffffffffffffffffffffffffff191614806105bb57507f5b5e139f000000000000000000000000000000000000000000000000000000007bffffffffffffffffffffffffffffffffffffffffffffffffffffffff1916827bffffffffffffffffffffffffffffffffffffffffffffffffffffffff1916145b806105cb57506105ca826119b5565b5b9050919050565b6060600080546105e190613278565b80601f016020809104026020016040519081016040528092919081815260200182805461060d90613278565b801561065a5780601f1061062f5761010080835404028352916020019161065a565b820191906000526020600020905b81548152906001019060200180831161063d57829003601f168201915b5050505050905090565b600061066f82611a1f565b6004600083815260200190815260200160002060009054906101000a900473ffffffffffffffffffffffffffffffffffffffff169050919050565b60006106b582610b3a565b90508073ffffffffffffffffffffffffffffffffffffffff168373ffffffffffffffffffffffffffffffffffffffff161415610726576040517f08c379a000000000000000000000000000000000000000000000000000000000815260040161071d9061331c565b60405180910390fd5b8073ffffffffffffffffffffffffffffffffffffffff16610745611a6a565b73ffffffffffffffffffffffffffffffffffffffff16148061077457506107738161076e611a6a565b611921565b5b6107b3576040517f08c379a00000000000000000000000000000000000000000000000000000000081526004016107aa906133ae565b60405180910390fd5b6107bd8383611a72565b505050565b6000600954905090565b6107dd6107d7611a6a565b82611b2b565b61081c576040517f08c379a000000000000000000000000000000000000000000000000000000000815260040161081390613440565b60405180910390fd5b610827838383611bc0565b505050565b61084783838360405180602001604052806000815250611286565b505050565b6060600061085a6007611e27565b905060008060005b83811015610903573373ffffffffffffffffffffffffffffffffffffffff16600b6000600184610892919061348f565b815260200190815260200160002060010160009054906101000a900473ffffffffffffffffffffffffffffffffffffffff1673ffffffffffffffffffffffffffffffffffffffff1614156108f0576001836108ed919061348f565b92505b80806108fb906134e5565b915050610862565b5060008267ffffffffffffffff8111156109205761091f612eb2565b5b60405190808252806020026020018201604052801561095957816020015b6109466128d1565b81526020019060019003908161093e5790505b50905060005b84811015610b2f573373ffffffffffffffffffffffffffffffffffffffff16600b600060018461098f919061348f565b815260200190815260200160002060010160009054906101000a900473ffffffffffffffffffffffffffffffffffffffff1673ffffffffffffffffffffffffffffffffffffffff161415610b1c5760006001826109ec919061348f565b90506000600b60008381526020019081526020016000209050806040518060a0016040529081600082015481526020016001820160009054906101000a900473ffffffffffffffffffffffffffffffffffffffff1673ffffffffffffffffffffffffffffffffffffffff1673ffffffffffffffffffffffffffffffffffffffff1681526020016002820160009054906101000a900473ffffffffffffffffffffffffffffffffffffffff1673ffffffffffffffffffffffffffffffffffffffff1673ffffffffffffffffffffffffffffffffffffffff168152602001600382015481526020016004820160009054906101000a900460ff161515151581525050848681518110610aff57610afe61352e565b5b6020026020010181905250600185610b17919061348f565b945050505b8080610b27906134e5565b91505061095f565b508094505050505090565b6000806002600084815260200190815260200160002060009054906101000a900473ffffffffffffffffffffffffffffffffffffffff169050600073ffffffffffffffffffffffffffffffffffffffff168173ffffffffffffffffffffffffffffffffffffffff161415610be3576040517f08c379a0000000000000000000000000000000000000000000000000000000008152600401610bda906135a9565b60405180910390fd5b80915050919050565b60008073ffffffffffffffffffffffffffffffffffffffff168273ffffffffffffffffffffffffffffffffffffffff161415610c5d576040517f08c379a0000000000000000000000000000000000000000000000000000000008152600401610c549061363b565b60405180910390fd5b600360008373ffffffffffffffffffffffffffffffffffffffff1673ffffffffffffffffffffffffffffffffffffffff168152602001908152602001600020549050919050565b6000610cb06007611e35565b6000610cbc6007611e27565b9050610cc83382611e4b565b610cd28185612025565b610cdc8184612099565b8091505092915050565b3373ffffffffffffffffffffffffffffffffffffffff16600b600084815260200190815260200160002060020160009054906101000a900473ffffffffffffffffffffffffffffffffffffffff1673ffffffffffffffffffffffffffffffffffffffff1614610d8a576040517f08c379a0000000000000000000000000000000000000000000000000000000008152600401610d81906136cd565b60405180910390fd5b6009543414610dce576040517f08c379a0000000000000000000000000000000000000000000000000000000008152600401610dc59061375f565b60405180910390fd5b6000600b600084815260200190815260200160002060040160006101000a81548160ff02191690831515021790555080600b60008481526020019081526020016000206003018190555033600b600084815260200190815260200160002060010160006101000a81548173ffffffffffffffffffffffffffffffffffffffff021916908373ffffffffffffffffffffffffffffffffffffffff16021790555030600b600084815260200190815260200160002060020160006101000a81548173ffffffffffffffffffffffffffffffffffffffff021916908373ffffffffffffffffffffffffffffffffffffffff160217905550610ecc600861229c565b610ed7333084611bc0565b5050565b60606000610ee96007611e27565b90506000610ef76008611e27565b610f016007611e27565b610f0b919061377f565b90506000808267ffffffffffffffff811115610f2a57610f29612eb2565b5b604051908082528060200260200182016040528015610f6357816020015b610f506128d1565b815260200190600190039081610f485790505b50905060005b84811015611139573073ffffffffffffffffffffffffffffffffffffffff16600b6000600184610f99919061348f565b815260200190815260200160002060020160009054906101000a900473ffffffffffffffffffffffffffffffffffffffff1673ffffffffffffffffffffffffffffffffffffffff161415611126576000600182610ff6919061348f565b90506000600b60008381526020019081526020016000209050806040518060a0016040529081600082015481526020016001820160009054906101000a900473ffffffffffffffffffffffffffffffffffffffff1673ffffffffffffffffffffffffffffffffffffffff1673ffffffffffffffffffffffffffffffffffffffff1681526020016002820160009054906101000a900473ffffffffffffffffffffffffffffffffffffffff1673ffffffffffffffffffffffffffffffffffffffff1673ffffffffffffffffffffffffffffffffffffffff168152602001600382015481526020016004820160009054906101000a900460ff1615151515815250508486815181106111095761110861352e565b5b6020026020010181905250600185611121919061348f565b945050505b8080611131906134e5565b915050610f69565b508094505050505090565b60606001805461115390613278565b80601f016020809104026020016040519081016040528092919081815260200182805461117f90613278565b80156111cc5780601f106111a1576101008083540402835291602001916111cc565b820191906000526020600020905b8154815290600101906020018083116111af57829003601f168201915b5050505050905090565b6111e86111e1611a6a565b83836122f8565b5050565b600a60009054906101000a900473ffffffffffffffffffffffffffffffffffffffff1673ffffffffffffffffffffffffffffffffffffffff163373ffffffffffffffffffffffffffffffffffffffff161461127c576040517f08c379a000000000000000000000000000000000000000000000000000000000815260040161127390613825565b60405180910390fd5b8060098190555050565b611297611291611a6a565b83611b2b565b6112d6576040517f08c379a00000000000000000000000000000000000000000000000000000000081526004016112cd90613440565b60405180910390fd5b6112e284848484612465565b50505050565b6000600b6000838152602001908152602001600020600301549050803414611345576040517f08c379a000000000000000000000000000000000000000000000000000000000815260040161133c906138b7565b60405180910390fd5b33600b600084815260200190815260200160002060020160006101000a81548173ffffffffffffffffffffffffffffffffffffffff021916908373ffffffffffffffffffffffffffffffffffffffff1602179055506001600b600084815260200190815260200160002060040160006101000a81548160ff0219169083151502179055506000600b600084815260200190815260200160002060020160006101000a81548173ffffffffffffffffffffffffffffffffffffffff021916908373ffffffffffffffffffffffffffffffffffffffff1602179055506114296008611e35565b611434303384611bc0565b600a60009054906101000a900473ffffffffffffffffffffffffffffffffffffffff1673ffffffffffffffffffffffffffffffffffffffff166108fc6009549081150290604051600060405180830381858888f1935050505015801561149e573d6000803e3d6000fd5b50600b600083815260200190815260200160002060010160009054906101000a900473ffffffffffffffffffffffffffffffffffffffff1673ffffffffffffffffffffffffffffffffffffffff166108fc349081150290604051600060405180830381858888f1935050505015801561151b573d6000803e3d6000fd5b505050565b6060600061152e6007611e27565b905060008060005b838110156115d7573373ffffffffffffffffffffffffffffffffffffffff16600b6000600184611566919061348f565b815260200190815260200160002060020160009054906101000a900473ffffffffffffffffffffffffffffffffffffffff1673ffffffffffffffffffffffffffffffffffffffff1614156115c4576001836115c1919061348f565b92505b80806115cf906134e5565b915050611536565b5060008267ffffffffffffffff8111156115f4576115f3612eb2565b5b60405190808252806020026020018201604052801561162d57816020015b61161a6128d1565b8152602001906001900390816116125790505b50905060005b84811015611803573373ffffffffffffffffffffffffffffffffffffffff16600b6000600184611663919061348f565b815260200190815260200160002060020160009054906101000a900473ffffffffffffffffffffffffffffffffffffffff1673ffffffffffffffffffffffffffffffffffffffff1614156117f05760006001826116c0919061348f565b90506000600b60008381526020019081526020016000209050806040518060a0016040529081600082015481526020016001820160009054906101000a900473ffffffffffffffffffffffffffffffffffffffff1673ffffffffffffffffffffffffffffffffffffffff1673ffffffffffffffffffffffffffffffffffffffff1681526020016002820160009054906101000a900473ffffffffffffffffffffffffffffffffffffffff1673ffffffffffffffffffffffffffffffffffffffff1673ffffffffffffffffffffffffffffffffffffffff168152602001600382015481526020016004820160009054906101000a900460ff1615151515815250508486815181106117d3576117d261352e565b5b60200260200101819052506001856117eb919061348f565b945050505b80806117fb906134e5565b915050611633565b508094505050505090565b606061181982611a1f565b600060066000848152602001908152602001600020805461183990613278565b80601f016020809104026020016040519081016040528092919081815260200182805461186590613278565b80156118b25780601f10611887576101008083540402835291602001916118b2565b820191906000526020600020905b81548152906001019060200180831161189557829003601f168201915b5050505050905060006118c36124c1565b90506000815114156118d957819250505061191c565b60008251111561190e5780826040516020016118f6929190613913565b6040516020818303038152906040529250505061191c565b611917846124d8565b925050505b919050565b6000600560008473ffffffffffffffffffffffffffffffffffffffff1673ffffffffffffffffffffffffffffffffffffffff16815260200190815260200160002060008373ffffffffffffffffffffffffffffffffffffffff1673ffffffffffffffffffffffffffffffffffffffff16815260200190815260200160002060009054906101000a900460ff16905092915050565b60007f01ffc9a7000000000000000000000000000000000000000000000000000000007bffffffffffffffffffffffffffffffffffffffffffffffffffffffff1916827bffffffffffffffffffffffffffffffffffffffffffffffffffffffff1916149050919050565b611a2881612540565b611a67576040517f08c379a0000000000000000000000000000000000000000000000000000000008152600401611a5e906135a9565b60405180910390fd5b50565b600033905090565b816004600083815260200190815260200160002060006101000a81548173ffffffffffffffffffffffffffffffffffffffff021916908373ffffffffffffffffffffffffffffffffffffffff160217905550808273ffffffffffffffffffffffffffffffffffffffff16611ae583610b3a565b73ffffffffffffffffffffffffffffffffffffffff167f8c5be1e5ebec7d5bd14f71427d1e84f3dd0314c0f7b2291e5b200ac8c7c3b92560405160405180910390a45050565b600080611b3783610b3a565b90508073ffffffffffffffffffffffffffffffffffffffff168473ffffffffffffffffffffffffffffffffffffffff161480611b795750611b788185611921565b5b80611bb757508373ffffffffffffffffffffffffffffffffffffffff16611b9f84610664565b73ffffffffffffffffffffffffffffffffffffffff16145b91505092915050565b8273ffffffffffffffffffffffffffffffffffffffff16611be082610b3a565b73ffffffffffffffffffffffffffffffffffffffff1614611c36576040517f08c379a0000000000000000000000000000000000000000000000000000000008152600401611c2d906139a9565b60405180910390fd5b600073ffffffffffffffffffffffffffffffffffffffff168273ffffffffffffffffffffffffffffffffffffffff161415611ca6576040517f08c379a0000000000000000000000000000000000000000000000000000000008152600401611c9d90613a3b565b60405180910390fd5b611cb18383836125ac565b611cbc600082611a72565b6001600360008573ffffffffffffffffffffffffffffffffffffffff1673ffffffffffffffffffffffffffffffffffffffff1681526020019081526020016000206000828254611d0c919061377f565b925050819055506001600360008473ffffffffffffffffffffffffffffffffffffffff1673ffffffffffffffffffffffffffffffffffffffff1681526020019081526020016000206000828254611d63919061348f565b92505081905550816002600083815260200190815260200160002060006101000a81548173ffffffffffffffffffffffffffffffffffffffff021916908373ffffffffffffffffffffffffffffffffffffffff160217905550808273ffffffffffffffffffffffffffffffffffffffff168473ffffffffffffffffffffffffffffffffffffffff167fddf252ad1be2c89b69c2b068fc378daa952ba7f163c4a11628f55a4df523b3ef60405160405180910390a4611e228383836125b1565b505050565b600081600001549050919050565b6001816000016000828254019250508190555050565b600073ffffffffffffffffffffffffffffffffffffffff168273ffffffffffffffffffffffffffffffffffffffff161415611ebb576040517f08c379a0000000000000000000000000000000000000000000000000000000008152600401611eb290613aa7565b60405180910390fd5b611ec481612540565b15611f04576040517f08c379a0000000000000000000000000000000000000000000000000000000008152600401611efb90613b13565b60405180910390fd5b611f10600083836125ac565b6001600360008473ffffffffffffffffffffffffffffffffffffffff1673ffffffffffffffffffffffffffffffffffffffff1681526020019081526020016000206000828254611f60919061348f565b92505081905550816002600083815260200190815260200160002060006101000a81548173ffffffffffffffffffffffffffffffffffffffff021916908373ffffffffffffffffffffffffffffffffffffffff160217905550808273ffffffffffffffffffffffffffffffffffffffff16600073ffffffffffffffffffffffffffffffffffffffff167fddf252ad1be2c89b69c2b068fc378daa952ba7f163c4a11628f55a4df523b3ef60405160405180910390a4612021600083836125b1565b5050565b61202e82612540565b61206d576040517f08c379a000000000000000000000000000000000000000000000000000000000815260040161206490613ba5565b60405180910390fd5b8060066000848152602001908152602001600020908051906020019061209492919061292e565b505050565b600081116120dc576040517f08c379a00000000000000000000000000000000000000000000000000000000081526004016120d390613c11565b60405180910390fd5b6009543414612120576040517f08c379a000000000000000000000000000000000000000000000000000000000815260040161211790613ca3565b60405180910390fd5b6040518060a001604052808381526020013373ffffffffffffffffffffffffffffffffffffffff1681526020013073ffffffffffffffffffffffffffffffffffffffff16815260200182815260200160001515815250600b60008481526020019081526020016000206000820151816000015560208201518160010160006101000a81548173ffffffffffffffffffffffffffffffffffffffff021916908373ffffffffffffffffffffffffffffffffffffffff16021790555060408201518160020160006101000a81548173ffffffffffffffffffffffffffffffffffffffff021916908373ffffffffffffffffffffffffffffffffffffffff1602179055506060820151816003015560808201518160040160006101000a81548160ff021916908315150217905550905050612259333084611bc0565b817fdebdb32cb5230ab727c9c361b16fdb2015df225c10e6a3e7f60ecd5dc5be451633308460006040516122909493929190613cc3565b60405180910390a25050565b600081600001549050600081116122e8576040517f08c379a00000000000000000000000000000000000000000000000000000000081526004016122df90613d54565b60405180910390fd5b6001810382600001819055505050565b8173ffffffffffffffffffffffffffffffffffffffff168373ffffffffffffffffffffffffffffffffffffffff161415612367576040517f08c379a000000000000000000000000000000000000000000000000000000000815260040161235e90613dc0565b60405180910390fd5b80600560008573ffffffffffffffffffffffffffffffffffffffff1673ffffffffffffffffffffffffffffffffffffffff16815260200190815260200160002060008473ffffffffffffffffffffffffffffffffffffffff1673ffffffffffffffffffffffffffffffffffffffff16815260200190815260200160002060006101000a81548160ff0219169083151502179055508173ffffffffffffffffffffffffffffffffffffffff168373ffffffffffffffffffffffffffffffffffffffff167f17307eab39ab6107e8899845ad3d59bd9653f200f220920489ca2b5937696c31836040516124589190612a85565b60405180910390a3505050565b612470848484611bc0565b61247c848484846125b6565b6124bb576040517f08c379a00000000000000000000000000000000000000000000000000000000081526004016124b290613e52565b60405180910390fd5b50505050565b606060405180602001604052806000815250905090565b60606124e382611a1f565b60006124ed6124c1565b9050600081511161250d5760405180602001604052806000815250612538565b806125178461274d565b604051602001612528929190613913565b6040516020818303038152906040525b915050919050565b60008073ffffffffffffffffffffffffffffffffffffffff166002600084815260200190815260200160002060009054906101000a900473ffffffffffffffffffffffffffffffffffffffff1673ffffffffffffffffffffffffffffffffffffffff1614159050919050565b505050565b505050565b60006125d78473ffffffffffffffffffffffffffffffffffffffff166128ae565b15612740578373ffffffffffffffffffffffffffffffffffffffff1663150b7a02612600611a6a565b8786866040518563ffffffff1660e01b81526004016126229493929190613ec7565b602060405180830381600087803b15801561263c57600080fd5b505af192505050801561266d57506040513d601f19601f8201168201806040525081019061266a9190613f28565b60015b6126f0573d806000811461269d576040519150601f19603f3d011682016040523d82523d6000602084013e6126a2565b606091505b506000815114156126e8576040517f08c379a00000000000000000000000000000000000000000000000000000000081526004016126df90613e52565b60405180910390fd5b805181602001fd5b63150b7a0260e01b7bffffffffffffffffffffffffffffffffffffffffffffffffffffffff1916817bffffffffffffffffffffffffffffffffffffffffffffffffffffffff191614915050612745565b600190505b949350505050565b60606000821415612795576040518060400160405280600181526020017f300000000000000000000000000000000000000000000000000000000000000081525090506128a9565b600082905060005b600082146127c75780806127b0906134e5565b915050600a826127c09190613f84565b915061279d565b60008167ffffffffffffffff8111156127e3576127e2612eb2565b5b6040519080825280601f01601f1916602001820160405280156128155781602001600182028036833780820191505090505b5090505b600085146128a25760018261282e919061377f565b9150600a8561283d9190613fb5565b6030612849919061348f565b60f81b81838151811061285f5761285e61352e565b5b60200101907effffffffffffffffffffffffffffffffffffffffffffffffffffffffffffff1916908160001a905350600a8561289b9190613f84565b9450612819565b8093505050505b919050565b6000808273ffffffffffffffffffffffffffffffffffffffff163b119050919050565b6040518060a0016040528060008152602001600073ffffffffffffffffffffffffffffffffffffffff168152602001600073ffffffffffffffffffffffffffffffffffffffff168152602001600081526020016000151581525090565b82805461293a90613278565b90600052602060002090601f01602090048101928261295c57600085556129a3565b82601f1061297557805160ff19168380011785556129a3565b828001600101855582156129a3579182015b828111156129a2578251825591602001919060010190612987565b5b5090506129b091906129b4565b5090565b5b808211156129cd5760008160009055506001016129b5565b5090565b6000604051905090565b600080fd5b600080fd5b60007fffffffff0000000000000000000000000000000000000000000000000000000082169050919050565b612a1a816129e5565b8114612a2557600080fd5b50565b600081359050612a3781612a11565b92915050565b600060208284031215612a5357612a526129db565b5b6000612a6184828501612a28565b91505092915050565b60008115159050919050565b612a7f81612a6a565b82525050565b6000602082019050612a9a6000830184612a76565b92915050565b600081519050919050565b600082825260208201905092915050565b60005b83811015612ada578082015181840152602081019050612abf565b83811115612ae9576000848401525b50505050565b6000601f19601f8301169050919050565b6000612b0b82612aa0565b612b158185612aab565b9350612b25818560208601612abc565b612b2e81612aef565b840191505092915050565b60006020820190508181036000830152612b538184612b00565b905092915050565b6000819050919050565b612b6e81612b5b565b8114612b7957600080fd5b50565b600081359050612b8b81612b65565b92915050565b600060208284031215612ba757612ba66129db565b5b6000612bb584828501612b7c565b91505092915050565b600073ffffffffffffffffffffffffffffffffffffffff82169050919050565b6000612be982612bbe565b9050919050565b612bf981612bde565b82525050565b6000602082019050612c146000830184612bf0565b92915050565b612c2381612bde565b8114612c2e57600080fd5b50565b600081359050612c4081612c1a565b92915050565b60008060408385031215612c5d57612c5c6129db565b5b6000612c6b85828601612c31565b9250506020612c7c85828601612b7c565b9150509250929050565b612c8f81612b5b565b82525050565b6000602082019050612caa6000830184612c86565b92915050565b600080600060608486031215612cc957612cc86129db565b5b6000612cd786828701612c31565b9350506020612ce886828701612c31565b9250506040612cf986828701612b7c565b9150509250925092565b600081519050919050565b600082825260208201905092915050565b6000819050602082019050919050565b612d3881612b5b565b82525050565b6000612d4982612bbe565b9050919050565b612d5981612d3e565b82525050565b612d6881612a6a565b82525050565b60a082016000820151612d846000850182612d2f565b506020820151612d976020850182612d50565b506040820151612daa6040850182612d50565b506060820151612dbd6060850182612d2f565b506080820151612dd06080850182612d5f565b50505050565b6000612de28383612d6e565b60a08301905092915050565b6000602082019050919050565b6000612e0682612d03565b612e108185612d0e565b9350612e1b83612d1f565b8060005b83811015612e4c578151612e338882612dd6565b9750612e3e83612dee565b925050600181019050612e1f565b5085935050505092915050565b60006020820190508181036000830152612e738184612dfb565b905092915050565b600060208284031215612e9157612e906129db565b5b6000612e9f84828501612c31565b91505092915050565b600080fd5b600080fd5b7f4e487b7100000000000000000000000000000000000000000000000000000000600052604160045260246000fd5b612eea82612aef565b810181811067ffffffffffffffff82111715612f0957612f08612eb2565b5b80604052505050565b6000612f1c6129d1565b9050612f288282612ee1565b919050565b600067ffffffffffffffff821115612f4857612f47612eb2565b5b612f5182612aef565b9050602081019050919050565b82818337600083830152505050565b6000612f80612f7b84612f2d565b612f12565b905082815260208101848484011115612f9c57612f9b612ead565b5b612fa7848285612f5e565b509392505050565b600082601f830112612fc457612fc3612ea8565b5b8135612fd4848260208601612f6d565b91505092915050565b60008060408385031215612ff457612ff36129db565b5b600083013567ffffffffffffffff811115613012576130116129e0565b5b61301e85828601612faf565b925050602061302f85828601612b7c565b9150509250929050565b600080604083850312156130505761304f6129db565b5b600061305e85828601612b7c565b925050602061306f85828601612b7c565b9150509250929050565b61308281612a6a565b811461308d57600080fd5b50565b60008135905061309f81613079565b92915050565b600080604083850312156130bc576130bb6129db565b5b60006130ca85828601612c31565b92505060206130db85828601613090565b9150509250929050565b600067ffffffffffffffff821115613100576130ff612eb2565b5b61310982612aef565b9050602081019050919050565b6000613129613124846130e5565b612f12565b90508281526020810184848401111561314557613144612ead565b5b613150848285612f5e565b509392505050565b600082601f83011261316d5761316c612ea8565b5b813561317d848260208601613116565b91505092915050565b600080600080608085870312156131a05761319f6129db565b5b60006131ae87828801612c31565b94505060206131bf87828801612c31565b93505060406131d087828801612b7c565b925050606085013567ffffffffffffffff8111156131f1576131f06129e0565b5b6131fd87828801613158565b91505092959194509250565b600080604083850312156132205761321f6129db565b5b600061322e85828601612c31565b925050602061323f85828601612c31565b9150509250929050565b7f4e487b7100000000000000000000000000000000000000000000000000000000600052602260045260246000fd5b6000600282049050600182168061329057607f821691505b602082108114156132a4576132a3613249565b5b50919050565b7f4552433732313a20617070726f76616c20746f2063757272656e74206f776e6560008201527f7200000000000000000000000000000000000000000000000000000000000000602082015250565b6000613306602183612aab565b9150613311826132aa565b604082019050919050565b60006020820190508181036000830152613335816132f9565b9050919050565b7f4552433732313a20617070726f76652063616c6c6572206973206e6f7420746f60008201527f6b656e206f776e6572206e6f7220617070726f76656420666f7220616c6c0000602082015250565b6000613398603e83612aab565b91506133a38261333c565b604082019050919050565b600060208201905081810360008301526133c78161338b565b9050919050565b7f4552433732313a2063616c6c6572206973206e6f7420746f6b656e206f776e6560008201527f72206e6f7220617070726f766564000000000000000000000000000000000000602082015250565b600061342a602e83612aab565b9150613435826133ce565b604082019050919050565b600060208201905081810360008301526134598161341d565b9050919050565b7f4e487b7100000000000000000000000000000000000000000000000000000000600052601160045260246000fd5b600061349a82612b5b565b91506134a583612b5b565b9250827fffffffffffffffffffffffffffffffffffffffffffffffffffffffffffffffff038211156134da576134d9613460565b5b828201905092915050565b60006134f082612b5b565b91507fffffffffffffffffffffffffffffffffffffffffffffffffffffffffffffffff82141561352357613522613460565b5b600182019050919050565b7f4e487b7100000000000000000000000000000000000000000000000000000000600052603260045260246000fd5b7f4552433732313a20696e76616c696420746f6b656e2049440000000000000000600082015250565b6000613593601883612aab565b915061359e8261355d565b602082019050919050565b600060208201905081810360008301526135c281613586565b9050919050565b7f4552433732313a2061646472657373207a65726f206973206e6f74206120766160008201527f6c6964206f776e65720000000000000000000000000000000000000000000000602082015250565b6000613625602983612aab565b9150613630826135c9565b604082019050919050565b6000602082019050818103600083015261365481613618565b9050919050565b7f4f6e6c79206974656d206f776e65722063616e20706572666f726d207468697360008201527f206f7065726174696f6e00000000000000000000000000000000000000000000602082015250565b60006136b7602a83612aab565b91506136c28261365b565b604082019050919050565b600060208201905081810360008301526136e6816136aa565b9050919050565b7f5072696365206d75737420626520657175616c20746f206c697374696e67207060008201527f7269636500000000000000000000000000000000000000000000000000000000602082015250565b6000613749602483612aab565b9150613754826136ed565b604082019050919050565b600060208201905081810360008301526137788161373c565b9050919050565b600061378a82612b5b565b915061379583612b5b565b9250828210156137a8576137a7613460565b5b828203905092915050565b7f6f6e6c79206f776e6572206f6620746865206d61726b6574706c61636520636160008201527f6e206368616e676520746865206c697374696e67207072696365000000000000602082015250565b600061380f603a83612aab565b915061381a826137b3565b604082019050919050565b6000602082019050818103600083015261383e81613802565b9050919050565b7f506c65617365207375626d6974207468652061736b696e67207072696365206960008201527f6e206f7264657220746f20636f6d706c65746520746865207075726368617365602082015250565b60006138a1604083612aab565b91506138ac82613845565b604082019050919050565b600060208201905081810360008301526138d081613894565b9050919050565b600081905092915050565b60006138ed82612aa0565b6138f781856138d7565b9350613907818560208601612abc565b80840191505092915050565b600061391f82856138e2565b915061392b82846138e2565b91508190509392505050565b7f4552433732313a207472616e736665722066726f6d20696e636f72726563742060008201527f6f776e6572000000000000000000000000000000000000000000000000000000602082015250565b6000613993602583612aab565b915061399e82613937565b604082019050919050565b600060208201905081810360008301526139c281613986565b9050919050565b7f4552433732313a207472616e7366657220746f20746865207a65726f2061646460008201527f7265737300000000000000000000000000000000000000000000000000000000602082015250565b6000613a25602483612aab565b9150613a30826139c9565b604082019050919050565b60006020820190508181036000830152613a5481613a18565b9050919050565b7f4552433732313a206d696e7420746f20746865207a65726f2061646472657373600082015250565b6000613a91602083612aab565b9150613a9c82613a5b565b602082019050919050565b60006020820190508181036000830152613ac081613a84565b9050919050565b7f4552433732313a20746f6b656e20616c7265616479206d696e74656400000000600082015250565b6000613afd601c83612aab565b9150613b0882613ac7565b602082019050919050565b60006020820190508181036000830152613b2c81613af0565b9050919050565b7f45524337323155524953746f726167653a2055524920736574206f66206e6f6e60008201527f6578697374656e7420746f6b656e000000000000000000000000000000000000602082015250565b6000613b8f602e83612aab565b9150613b9a82613b33565b604082019050919050565b60006020820190508181036000830152613bbe81613b82565b9050919050565b7f5072696365206d75737420626520616c206c6573742031000000000000000000600082015250565b6000613bfb601783612aab565b9150613c0682613bc5565b602082019050919050565b60006020820190508181036000830152613c2a81613bee565b9050919050565b7f50726963206d75737420626520657175616c20746f206c697374696e6720707260008201527f6963650000000000000000000000000000000000000000000000000000000000602082015250565b6000613c8d602383612aab565b9150613c9882613c31565b604082019050919050565b60006020820190508181036000830152613cbc81613c80565b9050919050565b6000608082019050613cd86000830187612bf0565b613ce56020830186612bf0565b613cf26040830185612c86565b613cff6060830184612a76565b95945050505050565b7f436f756e7465723a2064656372656d656e74206f766572666c6f770000000000600082015250565b6000613d3e601b83612aab565b9150613d4982613d08565b602082019050919050565b60006020820190508181036000830152613d6d81613d31565b9050919050565b7f4552433732313a20617070726f766520746f2063616c6c657200000000000000600082015250565b6000613daa601983612aab565b9150613db582613d74565b602082019050919050565b60006020820190508181036000830152613dd981613d9d565b9050919050565b7f4552433732313a207472616e7366657220746f206e6f6e20455243373231526560008201527f63656976657220696d706c656d656e7465720000000000000000000000000000602082015250565b6000613e3c603283612aab565b9150613e4782613de0565b604082019050919050565b60006020820190508181036000830152613e6b81613e2f565b9050919050565b600081519050919050565b600082825260208201905092915050565b6000613e9982613e72565b613ea38185613e7d565b9350613eb3818560208601612abc565b613ebc81612aef565b840191505092915050565b6000608082019050613edc6000830187612bf0565b613ee96020830186612bf0565b613ef66040830185612c86565b8181036060830152613f088184613e8e565b905095945050505050565b600081519050613f2281612a11565b92915050565b600060208284031215613f3e57613f3d6129db565b5b6000613f4c84828501613f13565b91505092915050565b7f4e487b7100000000000000000000000000000000000000000000000000000000600052601260045260246000fd5b6000613f8f82612b5b565b9150613f9a83612b5b565b925082613faa57613fa9613f55565b5b828204905092915050565b6000613fc082612b5b565b9150613fcb83612b5b565b925082613fdb57613fda613f55565b5b82820690509291505056fea2646970667358221220ead9f97a1d0620f492fb54e4e291fbbe6534349734843d0c76f8876913683e5264736f6c63430008090033",
  "linkReferences": {},
  "deployedLinkReferences": {}
}